{
  "_format": "hh-sol-artifact-1",
  "contractName": "DeadTarget",
  "sourceName": "contracts/Dead.sol",
  "abi": [
    {
      "inputs": [
        {
          "internalType": "address",
          "name": "_verifier",
          "type": "address"
        }
      ],
      "stateMutability": "nonpayable",
      "type": "constructor"
    },
    {
      "anonymous": false,
      "inputs": [
        {
          "indexed": true,
          "internalType": "address",
          "name": "owner",
          "type": "address"
        },
        {
          "indexed": true,
          "internalType": "address",
          "name": "approved",
          "type": "address"
        },
        {
          "indexed": true,
          "internalType": "uint256",
          "name": "tokenId",
          "type": "uint256"
        }
      ],
      "name": "Approval",
      "type": "event"
    },
    {
      "anonymous": false,
      "inputs": [
        {
          "indexed": true,
          "internalType": "address",
          "name": "owner",
          "type": "address"
        },
        {
          "indexed": true,
          "internalType": "address",
          "name": "operator",
          "type": "address"
        },
        {
          "indexed": false,
          "internalType": "bool",
          "name": "approved",
          "type": "bool"
        }
      ],
      "name": "ApprovalForAll",
      "type": "event"
    },
    {
      "anonymous": false,
      "inputs": [
        {
          "indexed": false,
          "internalType": "address",
          "name": "",
          "type": "address"
        },
        {
          "indexed": false,
          "internalType": "uint256",
          "name": "",
          "type": "uint256"
        }
      ],
      "name": "MintNFT",
      "type": "event"
    },
    {
      "anonymous": false,
      "inputs": [
        {
          "indexed": true,
          "internalType": "address",
          "name": "from",
          "type": "address"
        },
        {
          "indexed": true,
          "internalType": "address",
          "name": "to",
          "type": "address"
        },
        {
          "indexed": true,
          "internalType": "uint256",
          "name": "tokenId",
          "type": "uint256"
        }
      ],
      "name": "Transfer",
      "type": "event"
    },
    {
      "inputs": [
        {
          "internalType": "address",
          "name": "to",
          "type": "address"
        },
        {
          "internalType": "uint256",
          "name": "tokenId",
          "type": "uint256"
        }
      ],
      "name": "approve",
      "outputs": [],
      "stateMutability": "nonpayable",
      "type": "function"
    },
    {
      "inputs": [
        {
          "internalType": "address",
          "name": "owner",
          "type": "address"
        }
      ],
      "name": "balanceOf",
      "outputs": [
        {
          "internalType": "uint256",
          "name": "",
          "type": "uint256"
        }
      ],
      "stateMutability": "view",
      "type": "function"
    },
    {
      "inputs": [
        {
          "internalType": "uint256",
          "name": "tokenId",
          "type": "uint256"
        }
      ],
      "name": "getApproved",
      "outputs": [
        {
          "internalType": "address",
          "name": "",
          "type": "address"
        }
      ],
      "stateMutability": "view",
      "type": "function"
    },
    {
      "inputs": [
        {
          "internalType": "uint256[2]",
          "name": "_a",
          "type": "uint256[2]"
        },
        {
          "internalType": "uint256[2][2]",
          "name": "_b",
          "type": "uint256[2][2]"
        },
        {
          "internalType": "uint256[2]",
          "name": "_c",
          "type": "uint256[2]"
        },
        {
          "internalType": "uint256[25]",
          "name": "_input",
          "type": "uint256[25]"
        }
      ],
      "name": "guess",
      "outputs": [
        {
          "internalType": "bool",
          "name": "",
          "type": "bool"
        }
      ],
      "stateMutability": "view",
      "type": "function"
    },
    {
      "inputs": [
        {
          "internalType": "address",
          "name": "owner",
          "type": "address"
        },
        {
          "internalType": "address",
          "name": "operator",
          "type": "address"
        }
      ],
      "name": "isApprovedForAll",
      "outputs": [
        {
          "internalType": "bool",
          "name": "",
          "type": "bool"
        }
      ],
      "stateMutability": "view",
      "type": "function"
    },
    {
      "inputs": [],
      "name": "name",
      "outputs": [
        {
          "internalType": "string",
          "name": "",
          "type": "string"
        }
      ],
      "stateMutability": "view",
      "type": "function"
    },
    {
      "inputs": [
        {
          "internalType": "uint256",
          "name": "tokenId",
          "type": "uint256"
        }
      ],
      "name": "ownerOf",
      "outputs": [
        {
          "internalType": "address",
          "name": "",
          "type": "address"
        }
      ],
      "stateMutability": "view",
      "type": "function"
    },
    {
      "inputs": [
        {
          "internalType": "address",
          "name": "from",
          "type": "address"
        },
        {
          "internalType": "address",
          "name": "to",
          "type": "address"
        },
        {
          "internalType": "uint256",
          "name": "tokenId",
          "type": "uint256"
        }
      ],
      "name": "safeTransferFrom",
      "outputs": [],
      "stateMutability": "nonpayable",
      "type": "function"
    },
    {
      "inputs": [
        {
          "internalType": "address",
          "name": "from",
          "type": "address"
        },
        {
          "internalType": "address",
          "name": "to",
          "type": "address"
        },
        {
          "internalType": "uint256",
          "name": "tokenId",
          "type": "uint256"
        },
        {
          "internalType": "bytes",
          "name": "_data",
          "type": "bytes"
        }
      ],
      "name": "safeTransferFrom",
      "outputs": [],
      "stateMutability": "nonpayable",
      "type": "function"
    },
    {
      "inputs": [
        {
          "internalType": "address",
          "name": "operator",
          "type": "address"
        },
        {
          "internalType": "bool",
          "name": "approved",
          "type": "bool"
        }
      ],
      "name": "setApprovalForAll",
      "outputs": [],
      "stateMutability": "nonpayable",
      "type": "function"
    },
    {
      "inputs": [
        {
          "internalType": "string",
          "name": "hash",
          "type": "string"
        }
      ],
      "name": "startGame",
      "outputs": [],
      "stateMutability": "nonpayable",
      "type": "function"
    },
    {
      "inputs": [
        {
          "internalType": "bytes4",
          "name": "interfaceId",
          "type": "bytes4"
        }
      ],
      "name": "supportsInterface",
      "outputs": [
        {
          "internalType": "bool",
          "name": "",
          "type": "bool"
        }
      ],
      "stateMutability": "view",
      "type": "function"
    },
    {
      "inputs": [],
      "name": "symbol",
      "outputs": [
        {
          "internalType": "string",
          "name": "",
          "type": "string"
        }
      ],
      "stateMutability": "view",
      "type": "function"
    },
    {
      "inputs": [
        {
          "internalType": "uint256",
          "name": "tokenId",
          "type": "uint256"
        }
      ],
      "name": "tokenURI",
      "outputs": [
        {
          "internalType": "string",
          "name": "",
          "type": "string"
        }
      ],
      "stateMutability": "view",
      "type": "function"
    },
    {
      "inputs": [
        {
          "internalType": "address",
          "name": "from",
          "type": "address"
        },
        {
          "internalType": "address",
          "name": "to",
          "type": "address"
        },
        {
          "internalType": "uint256",
          "name": "tokenId",
          "type": "uint256"
        }
      ],
      "name": "transferFrom",
      "outputs": [],
      "stateMutability": "nonpayable",
      "type": "function"
    },
    {
      "inputs": [
        {
          "internalType": "address",
          "name": "receiver",
          "type": "address"
        }
      ],
      "name": "won",
      "outputs": [
        {
          "internalType": "uint256",
          "name": "",
          "type": "uint256"
        }
      ],
      "stateMutability": "nonpayable",
      "type": "function"
    }
  ],
  "bytecode": "0x60806040523480156200001157600080fd5b5060405162003b7038038062003b708339818101604052810190620000379190620001e6565b6040518060400160405280600d81526020017f446561645461726765744e4654000000000000000000000000000000000000008152506040518060400160405280600381526020017f44544100000000000000000000000000000000000000000000000000000000008152508160009080519060200190620000bb9291906200011f565b508060019080519060200190620000d49291906200011f565b50505080600760006101000a81548173ffffffffffffffffffffffffffffffffffffffff021916908373ffffffffffffffffffffffffffffffffffffffff16021790555050620002c5565b8280546200012d9062000246565b90600052602060002090601f0160209004810192826200015157600085556200019d565b82601f106200016c57805160ff19168380011785556200019d565b828001600101855582156200019d579182015b828111156200019c5782518255916020019190600101906200017f565b5b509050620001ac9190620001b0565b5090565b5b80821115620001cb576000816000905550600101620001b1565b5090565b600081519050620001e081620002ab565b92915050565b600060208284031215620001f957600080fd5b60006200020984828501620001cf565b91505092915050565b60006200021f8262000226565b9050919050565b600073ffffffffffffffffffffffffffffffffffffffff82169050919050565b600060028204905060018216806200025f57607f821691505b602082108114156200027657620002756200027c565b5b50919050565b7f4e487b7100000000000000000000000000000000000000000000000000000000600052602260045260246000fd5b620002b68162000212565b8114620002c257600080fd5b50565b61389b80620002d56000396000f3fe608060405234801561001057600080fd5b50600436106101005760003560e01c806370a0823111610097578063b88d4fde11610066578063b88d4fde146102d1578063c87b56dd146102ed578063d542c4d51461031d578063e985e9c51461033957610100565b806370a082311461023757806371ee1aba1461026757806395d89b4114610297578063a22cb465146102b557610100565b806323b872dd116100d357806323b872dd1461019f57806342842e0e146101bb5780636352211e146101d75780636852e87e1461020757610100565b806301ffc9a71461010557806306fdde0314610135578063081812fc14610153578063095ea7b314610183575b600080fd5b61011f600480360381019061011a9190612254565b610369565b60405161012c9190612a1f565b60405180910390f35b61013d61044b565b60405161014a9190612a3a565b60405180910390f35b61016d600480360381019061016891906122e7565b6104dd565b60405161017a9190612948565b60405180910390f35b61019d6004803603810190610198919061218a565b610562565b005b6101b960048036038101906101b49190612084565b61067a565b005b6101d560048036038101906101d09190612084565b6106da565b005b6101f160048036038101906101ec91906122e7565b6106fa565b6040516101fe9190612948565b60405180910390f35b610221600480360381019061021c91906121c6565b6107ac565b60405161022e9190612a1f565b60405180910390f35b610251600480360381019061024c919061201f565b610869565b60405161025e9190612c5c565b60405180910390f35b610281600480360381019061027c919061201f565b610921565b60405161028e9190612c5c565b60405180910390f35b61029f6109e3565b6040516102ac9190612a3a565b60405180910390f35b6102cf60048036038101906102ca919061214e565b610a75565b005b6102eb60048036038101906102e691906120d3565b610a8b565b005b610307600480360381019061030291906122e7565b610aed565b6040516103149190612a3a565b60405180910390f35b610337600480360381019061033291906122a6565b610c3f565b005b610353600480360381019061034e9190612048565b610cda565b6040516103609190612a1f565b60405180910390f35b60007f80ac58cd000000000000000000000000000000000000000000000000000000007bffffffffffffffffffffffffffffffffffffffffffffffffffffffff1916827bffffffffffffffffffffffffffffffffffffffffffffffffffffffff1916148061043457507f5b5e139f000000000000000000000000000000000000000000000000000000007bffffffffffffffffffffffffffffffffffffffffffffffffffffffff1916827bffffffffffffffffffffffffffffffffffffffffffffffffffffffff1916145b80610444575061044382610d6e565b5b9050919050565b60606000805461045a90613010565b80601f016020809104026020016040519081016040528092919081815260200182805461048690613010565b80156104d35780601f106104a8576101008083540402835291602001916104d3565b820191906000526020600020905b8154815290600101906020018083116104b657829003601f168201915b5050505050905090565b60006104e882610dd8565b610527576040517f08c379a000000000000000000000000000000000000000000000000000000000815260040161051e90612bdc565b60405180910390fd5b6004600083815260200190815260200160002060009054906101000a900473ffffffffffffffffffffffffffffffffffffffff169050919050565b600061056d826106fa565b90508073ffffffffffffffffffffffffffffffffffffffff168373ffffffffffffffffffffffffffffffffffffffff1614156105de576040517f08c379a00000000000000000000000000000000000000000000000000000000081526004016105d590612c1c565b60405180910390fd5b8073ffffffffffffffffffffffffffffffffffffffff166105fd610e44565b73ffffffffffffffffffffffffffffffffffffffff16148061062c575061062b81610626610e44565b610cda565b5b61066b576040517f08c379a000000000000000000000000000000000000000000000000000000000815260040161066290612b1c565b60405180910390fd5b6106758383610e4c565b505050565b61068b610685610e44565b82610f05565b6106ca576040517f08c379a00000000000000000000000000000000000000000000000000000000081526004016106c190612c3c565b60405180910390fd5b6106d5838383610fe3565b505050565b6106f583838360405180602001604052806000815250610a8b565b505050565b6000806002600084815260200190815260200160002060009054906101000a900473ffffffffffffffffffffffffffffffffffffffff169050600073ffffffffffffffffffffffffffffffffffffffff168173ffffffffffffffffffffffffffffffffffffffff1614156107a3576040517f08c379a000000000000000000000000000000000000000000000000000000000815260040161079a90612b5c565b60405180910390fd5b80915050919050565b6000600760009054906101000a900473ffffffffffffffffffffffffffffffffffffffff1673ffffffffffffffffffffffffffffffffffffffff16636228e166868686866040518563ffffffff1660e01b815260040161080f94939291906129d8565b60206040518083038186803b15801561082757600080fd5b505afa15801561083b573d6000803e3d6000fd5b505050506040513d601f19601f8201168201806040525081019061085f919061222b565b9050949350505050565b60008073ffffffffffffffffffffffffffffffffffffffff168273ffffffffffffffffffffffffffffffffffffffff1614156108da576040517f08c379a00000000000000000000000000000000000000000000000000000000081526004016108d190612b3c565b60405180910390fd5b600360008373ffffffffffffffffffffffffffffffffffffffff1673ffffffffffffffffffffffffffffffffffffffff168152602001908152602001600020549050919050565b600080600a60003373ffffffffffffffffffffffffffffffffffffffff1673ffffffffffffffffffffffffffffffffffffffff168152602001908152602001600020541161096e57600080fd5b610978600861124a565b60006109846008611260565b9050610990838261126e565b6109a18161099c611448565b61149a565b7f1f89f147a58d1673945cf416187db98efc8208408c011b91887acd59fd8523c383826040516109d29291906129af565b60405180910390a180915050919050565b6060600180546109f290613010565b80601f0160208091040260200160405190810160405280929190818152602001828054610a1e90613010565b8015610a6b5780601f10610a4057610100808354040283529160200191610a6b565b820191906000526020600020905b815481529060010190602001808311610a4e57829003601f168201915b5050505050905090565b610a87610a80610e44565b838361150e565b5050565b610a9c610a96610e44565b83610f05565b610adb576040517f08c379a0000000000000000000000000000000000000000000000000000000008152600401610ad290612c3c565b60405180910390fd5b610ae78484848461167b565b50505050565b6060610af882610dd8565b610b37576040517f08c379a0000000000000000000000000000000000000000000000000000000008152600401610b2e90612bbc565b60405180910390fd5b6000600660008481526020019081526020016000208054610b5790613010565b80601f0160208091040260200160405190810160405280929190818152602001828054610b8390613010565b8015610bd05780601f10610ba557610100808354040283529160200191610bd0565b820191906000526020600020905b815481529060010190602001808311610bb357829003601f168201915b505050505090506000610be16116d7565b9050600081511415610bf7578192505050610c3a565b600082511115610c2c578082604051602001610c149291906128a0565b60405160208183030381529060405292505050610c3a565b610c35846116ee565b925050505b919050565b80600960003373ffffffffffffffffffffffffffffffffffffffff1673ffffffffffffffffffffffffffffffffffffffff1681526020019081526020016000209080519060200190610c92929190611c90565b5042600a60003373ffffffffffffffffffffffffffffffffffffffff1673ffffffffffffffffffffffffffffffffffffffff1681526020019081526020016000208190555050565b6000600560008473ffffffffffffffffffffffffffffffffffffffff1673ffffffffffffffffffffffffffffffffffffffff16815260200190815260200160002060008373ffffffffffffffffffffffffffffffffffffffff1673ffffffffffffffffffffffffffffffffffffffff16815260200190815260200160002060009054906101000a900460ff16905092915050565b60007f01ffc9a7000000000000000000000000000000000000000000000000000000007bffffffffffffffffffffffffffffffffffffffffffffffffffffffff1916827bffffffffffffffffffffffffffffffffffffffffffffffffffffffff1916149050919050565b60008073ffffffffffffffffffffffffffffffffffffffff166002600084815260200190815260200160002060009054906101000a900473ffffffffffffffffffffffffffffffffffffffff1673ffffffffffffffffffffffffffffffffffffffff1614159050919050565b600033905090565b816004600083815260200190815260200160002060006101000a81548173ffffffffffffffffffffffffffffffffffffffff021916908373ffffffffffffffffffffffffffffffffffffffff160217905550808273ffffffffffffffffffffffffffffffffffffffff16610ebf836106fa565b73ffffffffffffffffffffffffffffffffffffffff167f8c5be1e5ebec7d5bd14f71427d1e84f3dd0314c0f7b2291e5b200ac8c7c3b92560405160405180910390a45050565b6000610f1082610dd8565b610f4f576040517f08c379a0000000000000000000000000000000000000000000000000000000008152600401610f4690612afc565b60405180910390fd5b6000610f5a836106fa565b90508073ffffffffffffffffffffffffffffffffffffffff168473ffffffffffffffffffffffffffffffffffffffff161480610f9c5750610f9b8185610cda565b5b80610fda57508373ffffffffffffffffffffffffffffffffffffffff16610fc2846104dd565b73ffffffffffffffffffffffffffffffffffffffff16145b91505092915050565b8273ffffffffffffffffffffffffffffffffffffffff16611003826106fa565b73ffffffffffffffffffffffffffffffffffffffff1614611059576040517f08c379a000000000000000000000000000000000000000000000000000000000815260040161105090612a7c565b60405180910390fd5b600073ffffffffffffffffffffffffffffffffffffffff168273ffffffffffffffffffffffffffffffffffffffff1614156110c9576040517f08c379a00000000000000000000000000000000000000000000000000000000081526004016110c090612abc565b60405180910390fd5b6110d4838383611795565b6110df600082610e4c565b6001600360008573ffffffffffffffffffffffffffffffffffffffff1673ffffffffffffffffffffffffffffffffffffffff168152602001908152602001600020600082825461112f9190612f26565b925050819055506001600360008473ffffffffffffffffffffffffffffffffffffffff1673ffffffffffffffffffffffffffffffffffffffff16815260200190815260200160002060008282546111869190612e45565b92505081905550816002600083815260200190815260200160002060006101000a81548173ffffffffffffffffffffffffffffffffffffffff021916908373ffffffffffffffffffffffffffffffffffffffff160217905550808273ffffffffffffffffffffffffffffffffffffffff168473ffffffffffffffffffffffffffffffffffffffff167fddf252ad1be2c89b69c2b068fc378daa952ba7f163c4a11628f55a4df523b3ef60405160405180910390a461124583838361179a565b505050565b6001816000016000828254019250508190555050565b600081600001549050919050565b600073ffffffffffffffffffffffffffffffffffffffff168273ffffffffffffffffffffffffffffffffffffffff1614156112de576040517f08c379a00000000000000000000000000000000000000000000000000000000081526004016112d590612b9c565b60405180910390fd5b6112e781610dd8565b15611327576040517f08c379a000000000000000000000000000000000000000000000000000000000815260040161131e90612a9c565b60405180910390fd5b61133360008383611795565b6001600360008473ffffffffffffffffffffffffffffffffffffffff1673ffffffffffffffffffffffffffffffffffffffff16815260200190815260200160002060008282546113839190612e45565b92505081905550816002600083815260200190815260200160002060006101000a81548173ffffffffffffffffffffffffffffffffffffffff021916908373ffffffffffffffffffffffffffffffffffffffff160217905550808273ffffffffffffffffffffffffffffffffffffffff16600073ffffffffffffffffffffffffffffffffffffffff167fddf252ad1be2c89b69c2b068fc378daa952ba7f163c4a11628f55a4df523b3ef60405160405180910390a46114446000838361179a565b5050565b6060600060405160200161145b906128c4565b60405160208183030381529060405290506114758161179f565b6040516020016114859190612926565b60405160208183030381529060405291505090565b6114a382610dd8565b6114e2576040517f08c379a00000000000000000000000000000000000000000000000000000000081526004016114d990612b7c565b60405180910390fd5b80600660008481526020019081526020016000209080519060200190611509929190611c90565b505050565b8173ffffffffffffffffffffffffffffffffffffffff168373ffffffffffffffffffffffffffffffffffffffff16141561157d576040517f08c379a000000000000000000000000000000000000000000000000000000000815260040161157490612adc565b60405180910390fd5b80600560008573ffffffffffffffffffffffffffffffffffffffff1673ffffffffffffffffffffffffffffffffffffffff16815260200190815260200160002060008473ffffffffffffffffffffffffffffffffffffffff1673ffffffffffffffffffffffffffffffffffffffff16815260200190815260200160002060006101000a81548160ff0219169083151502179055508173ffffffffffffffffffffffffffffffffffffffff168373ffffffffffffffffffffffffffffffffffffffff167f17307eab39ab6107e8899845ad3d59bd9653f200f220920489ca2b5937696c318360405161166e9190612a1f565b60405180910390a3505050565b611686848484610fe3565b61169284848484611929565b6116d1576040517f08c379a00000000000000000000000000000000000000000000000000000000081526004016116c890612a5c565b60405180910390fd5b50505050565b606060405180602001604052806000815250905090565b60606116f982610dd8565b611738576040517f08c379a000000000000000000000000000000000000000000000000000000000815260040161172f90612bfc565b60405180910390fd5b60006117426116d7565b90506000815111611762576040518060200160405280600081525061178d565b8061176c84611ac0565b60405160200161177d9291906128a0565b6040516020818303038152906040525b915050919050565b505050565b505050565b60606000825114156117c257604051806020016040528060008152509050611924565b600060405180606001604052806040815260200161382660409139905060006003600285516117f19190612e45565b6117fb9190612e9b565b60046118079190612ecc565b67ffffffffffffffff811115611846577f4e487b7100000000000000000000000000000000000000000000000000000000600052604160045260246000fd5b6040519080825280601f01601f1916602001820160405280156118785781602001600182028036833780820191505090505b509050600182016020820185865187015b808210156118e4576003820191508151603f8160121c168501518453600184019350603f81600c1c168501518453600184019350603f8160061c168501518453600184019350603f8116850151845360018401935050611889565b505060038651066001811461190057600281146119135761191b565b603d6001830353603d600283035361191b565b603d60018303535b50505080925050505b919050565b600061194a8473ffffffffffffffffffffffffffffffffffffffff16611c6d565b15611ab3578373ffffffffffffffffffffffffffffffffffffffff1663150b7a02611973610e44565b8786866040518563ffffffff1660e01b81526004016119959493929190612963565b602060405180830381600087803b1580156119af57600080fd5b505af19250505080156119e057506040513d601f19601f820116820180604052508101906119dd919061227d565b60015b611a63573d8060008114611a10576040519150601f19603f3d011682016040523d82523d6000602084013e611a15565b606091505b50600081511415611a5b576040517f08c379a0000000000000000000000000000000000000000000000000000000008152600401611a5290612a5c565b60405180910390fd5b805181602001fd5b63150b7a0260e01b7bffffffffffffffffffffffffffffffffffffffffffffffffffffffff1916817bffffffffffffffffffffffffffffffffffffffffffffffffffffffff191614915050611ab8565b600190505b949350505050565b60606000821415611b08576040518060400160405280600181526020017f30000000000000000000000000000000000000000000000000000000000000008152509050611c68565b600082905060005b60008214611b3a578080611b2390613073565b915050600a82611b339190612e9b565b9150611b10565b60008167ffffffffffffffff811115611b7c577f4e487b7100000000000000000000000000000000000000000000000000000000600052604160045260246000fd5b6040519080825280601f01601f191660200182016040528015611bae5781602001600182028036833780820191505090505b5090505b60008514611c6157600182611bc79190612f26565b9150600a85611bd691906130bc565b6030611be29190612e45565b60f81b818381518110611c1e577f4e487b7100000000000000000000000000000000000000000000000000000000600052603260045260246000fd5b60200101907effffffffffffffffffffffffffffffffffffffffffffffffffffffffffffff1916908160001a905350600a85611c5a9190612e9b565b9450611bb2565b8093505050505b919050565b6000808273ffffffffffffffffffffffffffffffffffffffff163b119050919050565b828054611c9c90613010565b90600052602060002090601f016020900481019282611cbe5760008555611d05565b82601f10611cd757805160ff1916838001178555611d05565b82800160010185558215611d05579182015b82811115611d04578251825591602001919060010190611ce9565b5b509050611d129190611d16565b5090565b5b80821115611d2f576000816000905550600101611d17565b5090565b6000611d46611d4184612c9c565b612c77565b90508082856040860282011115611d5c57600080fd5b60005b85811015611d8c5781611d728882611f3b565b845260208401935060408301925050600181019050611d5f565b5050509392505050565b6000611da9611da484612cc2565b612c77565b90508082856020860282011115611dbf57600080fd5b60005b85811015611def5781611dd5888261200a565b845260208401935060208301925050600181019050611dc2565b5050509392505050565b6000611e0c611e0784612ce8565b612c77565b90508082856020860282011115611e2257600080fd5b60005b85811015611e525781611e38888261200a565b845260208401935060208301925050600181019050611e25565b5050509392505050565b6000611e6f611e6a84612d0e565b612c77565b905082815260208101848484011115611e8757600080fd5b611e92848285612fce565b509392505050565b6000611ead611ea884612d3f565b612c77565b905082815260208101848484011115611ec557600080fd5b611ed0848285612fce565b509392505050565b600081359050611ee7816137c9565b92915050565b600082601f830112611efe57600080fd5b6002611f0b848285611d33565b91505092915050565b600082601f830112611f2557600080fd5b6019611f32848285611d96565b91505092915050565b600082601f830112611f4c57600080fd5b6002611f59848285611df9565b91505092915050565b600081359050611f71816137e0565b92915050565b600081519050611f86816137e0565b92915050565b600081359050611f9b816137f7565b92915050565b600081519050611fb0816137f7565b92915050565b600082601f830112611fc757600080fd5b8135611fd7848260208601611e5c565b91505092915050565b600082601f830112611ff157600080fd5b8135612001848260208601611e9a565b91505092915050565b6000813590506120198161380e565b92915050565b60006020828403121561203157600080fd5b600061203f84828501611ed8565b91505092915050565b6000806040838503121561205b57600080fd5b600061206985828601611ed8565b925050602061207a85828601611ed8565b9150509250929050565b60008060006060848603121561209957600080fd5b60006120a786828701611ed8565b93505060206120b886828701611ed8565b92505060406120c98682870161200a565b9150509250925092565b600080600080608085870312156120e957600080fd5b60006120f787828801611ed8565b945050602061210887828801611ed8565b93505060406121198782880161200a565b925050606085013567ffffffffffffffff81111561213657600080fd5b61214287828801611fb6565b91505092959194509250565b6000806040838503121561216157600080fd5b600061216f85828601611ed8565b925050602061218085828601611f62565b9150509250929050565b6000806040838503121561219d57600080fd5b60006121ab85828601611ed8565b92505060206121bc8582860161200a565b9150509250929050565b60008060008061042085870312156121dd57600080fd5b60006121eb87828801611f3b565b94505060406121fc87828801611eed565b93505060c061220d87828801611f3b565b92505061010061221f87828801611f14565b91505092959194509250565b60006020828403121561223d57600080fd5b600061224b84828501611f77565b91505092915050565b60006020828403121561226657600080fd5b600061227484828501611f8c565b91505092915050565b60006020828403121561228f57600080fd5b600061229d84828501611fa1565b91505092915050565b6000602082840312156122b857600080fd5b600082013567ffffffffffffffff8111156122d257600080fd5b6122de84828501611fe0565b91505092915050565b6000602082840312156122f957600080fd5b60006123078482850161200a565b91505092915050565b600061231c83836123fd565b60408301905092915050565b60006123348383612882565b60208301905092915050565b61234981612f5a565b82525050565b61235881612d8e565b6123628184612dec565b925061236d82612d70565b8060005b8381101561239e5781516123858782612310565b965061239083612dc5565b925050600181019050612371565b505050505050565b6123af81612d99565b6123b98184612df7565b92506123c482612d7a565b8060005b838110156123f55781516123dc8782612328565b96506123e783612dd2565b9250506001810190506123c8565b505050505050565b61240681612da4565b6124108184612e02565b925061241b82612d84565b8060005b8381101561244c5781516124338782612328565b965061243e83612ddf565b92505060018101905061241f565b505050505050565b61245d81612da4565b6124678184612e0d565b925061247282612d84565b8060005b838110156124a357815161248a8782612328565b965061249583612ddf565b925050600181019050612476565b505050505050565b6124b481612f6c565b82525050565b60006124c582612daf565b6124cf8185612e18565b93506124df818560208601612fdd565b6124e8816131a9565b840191505092915050565b60006124fe82612dba565b6125088185612e29565b9350612518818560208601612fdd565b612521816131a9565b840191505092915050565b600061253782612dba565b6125418185612e3a565b9350612551818560208601612fdd565b80840191505092915050565b600061256a603283612e29565b9150612575826131ba565b604082019050919050565b600061258d602583612e29565b915061259882613209565b604082019050919050565b60006125b0601c83612e29565b91506125bb82613258565b602082019050919050565b60006125d3602483612e29565b91506125de82613281565b604082019050919050565b60006125f6601983612e29565b9150612601826132d0565b602082019050919050565b6000612619602c83612e29565b9150612624826132f9565b604082019050919050565b600061263c602e83612e3a565b915061264782613348565b602e82019050919050565b600061265f603883612e29565b915061266a82613397565b604082019050919050565b6000612682600183612e3a565b915061268d826133e6565b600182019050919050565b60006126a5602a83612e29565b91506126b08261340f565b604082019050919050565b60006126c8602983612e29565b91506126d38261345e565b604082019050919050565b60006126eb602e83612e29565b91506126f6826134ad565b604082019050919050565b600061270e601d83612e3a565b9150612719826134fc565b601d82019050919050565b6000612731602083612e29565b915061273c82613525565b602082019050919050565b6000612754600183612e3a565b915061275f8261354e565b600182019050919050565b6000612777603183612e29565b915061278282613577565b604082019050919050565b600061279a602c83612e29565b91506127a5826135c6565b604082019050919050565b60006127bd602f83612e29565b91506127c882613615565b604082019050919050565b60006127e0600183612e3a565b91506127eb82613664565b600182019050919050565b6000612803602183612e29565b915061280e8261368d565b604082019050919050565b6000612826601d83612e3a565b9150612831826136dc565b601d82019050919050565b6000612849603183612e29565b915061285482613705565b604082019050919050565b600061286c604d83612e3a565b915061287782613754565b604d82019050919050565b61288b81612fc4565b82525050565b61289a81612fc4565b82525050565b60006128ac828561252c565b91506128b8828461252c565b91508190509392505050565b60006128cf826127d3565b91506128da82612701565b91506128e582612675565b91506128f08261285f565b91506128fb82612675565b91506129068261262f565b915061291182612675565b915061291c82612747565b9150819050919050565b600061293182612819565b915061293d828461252c565b915081905092915050565b600060208201905061295d6000830184612340565b92915050565b60006080820190506129786000830187612340565b6129856020830186612340565b6129926040830185612891565b81810360608301526129a481846124ba565b905095945050505050565b60006040820190506129c46000830185612340565b6129d16020830184612891565b9392505050565b6000610420820190506129ee6000830187612454565b6129fb604083018661234f565b612a0860c0830185612454565b612a166101008301846123a6565b95945050505050565b6000602082019050612a3460008301846124ab565b92915050565b60006020820190508181036000830152612a5481846124f3565b905092915050565b60006020820190508181036000830152612a758161255d565b9050919050565b60006020820190508181036000830152612a9581612580565b9050919050565b60006020820190508181036000830152612ab5816125a3565b9050919050565b60006020820190508181036000830152612ad5816125c6565b9050919050565b60006020820190508181036000830152612af5816125e9565b9050919050565b60006020820190508181036000830152612b158161260c565b9050919050565b60006020820190508181036000830152612b3581612652565b9050919050565b60006020820190508181036000830152612b5581612698565b9050919050565b60006020820190508181036000830152612b75816126bb565b9050919050565b60006020820190508181036000830152612b95816126de565b9050919050565b60006020820190508181036000830152612bb581612724565b9050919050565b60006020820190508181036000830152612bd58161276a565b9050919050565b60006020820190508181036000830152612bf58161278d565b9050919050565b60006020820190508181036000830152612c15816127b0565b9050919050565b60006020820190508181036000830152612c35816127f6565b9050919050565b60006020820190508181036000830152612c558161283c565b9050919050565b6000602082019050612c716000830184612891565b92915050565b6000612c81612c92565b9050612c8d8282613042565b919050565b6000604051905090565b600067ffffffffffffffff821115612cb757612cb661317a565b5b602082029050919050565b600067ffffffffffffffff821115612cdd57612cdc61317a565b5b602082029050919050565b600067ffffffffffffffff821115612d0357612d0261317a565b5b602082029050919050565b600067ffffffffffffffff821115612d2957612d2861317a565b5b612d32826131a9565b9050602081019050919050565b600067ffffffffffffffff821115612d5a57612d5961317a565b5b612d63826131a9565b9050602081019050919050565b6000819050919050565b6000819050919050565b6000819050919050565b600060029050919050565b600060199050919050565b600060029050919050565b600081519050919050565b600081519050919050565b6000602082019050919050565b6000602082019050919050565b6000602082019050919050565b600081905092915050565b600081905092915050565b600081905092915050565b600081905092915050565b600082825260208201905092915050565b600082825260208201905092915050565b600081905092915050565b6000612e5082612fc4565b9150612e5b83612fc4565b9250827fffffffffffffffffffffffffffffffffffffffffffffffffffffffffffffffff03821115612e9057612e8f6130ed565b5b828201905092915050565b6000612ea682612fc4565b9150612eb183612fc4565b925082612ec157612ec061311c565b5b828204905092915050565b6000612ed782612fc4565b9150612ee283612fc4565b9250817fffffffffffffffffffffffffffffffffffffffffffffffffffffffffffffffff0483118215151615612f1b57612f1a6130ed565b5b828202905092915050565b6000612f3182612fc4565b9150612f3c83612fc4565b925082821015612f4f57612f4e6130ed565b5b828203905092915050565b6000612f6582612fa4565b9050919050565b60008115159050919050565b60007fffffffff0000000000000000000000000000000000000000000000000000000082169050919050565b600073ffffffffffffffffffffffffffffffffffffffff82169050919050565b6000819050919050565b82818337600083830152505050565b60005b83811015612ffb578082015181840152602081019050612fe0565b8381111561300a576000848401525b50505050565b6000600282049050600182168061302857607f821691505b6020821081141561303c5761303b61314b565b5b50919050565b61304b826131a9565b810181811067ffffffffffffffff8211171561306a5761306961317a565b5b80604052505050565b600061307e82612fc4565b91507fffffffffffffffffffffffffffffffffffffffffffffffffffffffffffffffff8214156130b1576130b06130ed565b5b600182019050919050565b60006130c782612fc4565b91506130d283612fc4565b9250826130e2576130e161311c565b5b828206905092915050565b7f4e487b7100000000000000000000000000000000000000000000000000000000600052601160045260246000fd5b7f4e487b7100000000000000000000000000000000000000000000000000000000600052601260045260246000fd5b7f4e487b7100000000000000000000000000000000000000000000000000000000600052602260045260246000fd5b7f4e487b7100000000000000000000000000000000000000000000000000000000600052604160045260246000fd5b6000601f19601f8301169050919050565b7f4552433732313a207472616e7366657220746f206e6f6e20455243373231526560008201527f63656976657220696d706c656d656e7465720000000000000000000000000000602082015250565b7f4552433732313a207472616e736665722066726f6d20696e636f72726563742060008201527f6f776e6572000000000000000000000000000000000000000000000000000000602082015250565b7f4552433732313a20746f6b656e20616c7265616479206d696e74656400000000600082015250565b7f4552433732313a207472616e7366657220746f20746865207a65726f2061646460008201527f7265737300000000000000000000000000000000000000000000000000000000602082015250565b7f4552433732313a20617070726f766520746f2063616c6c657200000000000000600082015250565b7f4552433732313a206f70657261746f7220717565727920666f72206e6f6e657860008201527f697374656e7420746f6b656e0000000000000000000000000000000000000000602082015250565b7f226465736372697074696f6e223a202252657761726420666f722077696e6e6960008201527f6e67206465616420746172676574000000000000000000000000000000000000602082015250565b7f4552433732313a20617070726f76652063616c6c6572206973206e6f74206f7760008201527f6e6572206e6f7220617070726f76656420666f7220616c6c0000000000000000602082015250565b7f2200000000000000000000000000000000000000000000000000000000000000600082015250565b7f4552433732313a2062616c616e636520717565727920666f7220746865207a6560008201527f726f206164647265737300000000000000000000000000000000000000000000602082015250565b7f4552433732313a206f776e657220717565727920666f72206e6f6e657869737460008201527f656e7420746f6b656e0000000000000000000000000000000000000000000000602082015250565b7f45524337323155524953746f726167653a2055524920736574206f66206e6f6e60008201527f6578697374656e7420746f6b656e000000000000000000000000000000000000602082015250565b7f226e616d65223a202244656164205461726765742077696e6e65722023000000600082015250565b7f4552433732313a206d696e7420746f20746865207a65726f2061646472657373600082015250565b7f7d00000000000000000000000000000000000000000000000000000000000000600082015250565b7f45524337323155524953746f726167653a2055524920717565727920666f722060008201527f6e6f6e6578697374656e7420746f6b656e000000000000000000000000000000602082015250565b7f4552433732313a20617070726f76656420717565727920666f72206e6f6e657860008201527f697374656e7420746f6b656e0000000000000000000000000000000000000000602082015250565b7f4552433732314d657461646174613a2055524920717565727920666f72206e6f60008201527f6e6578697374656e7420746f6b656e0000000000000000000000000000000000602082015250565b7f7b00000000000000000000000000000000000000000000000000000000000000600082015250565b7f4552433732313a20617070726f76616c20746f2063757272656e74206f776e6560008201527f7200000000000000000000000000000000000000000000000000000000000000602082015250565b7f646174613a6170706c69636174696f6e2f6a736f6e3b6261736536342c000000600082015250565b7f4552433732313a207472616e736665722063616c6c6572206973206e6f74206f60008201527f776e6572206e6f7220617070726f766564000000000000000000000000000000602082015250565b7f22696d616765223a202268747470733a2f2f697066732e696f2f697066732f5160008201527f6d547134503864794266545534414348335471326b6551586f7a704d5536654460208201527f4a395a6337543238567751594a00000000000000000000000000000000000000604082015250565b6137d281612f5a565b81146137dd57600080fd5b50565b6137e981612f6c565b81146137f457600080fd5b50565b61380081612f78565b811461380b57600080fd5b50565b61381781612fc4565b811461382257600080fd5b5056fe4142434445464748494a4b4c4d4e4f505152535455565758595a6162636465666768696a6b6c6d6e6f707172737475767778797a303132333435363738392b2fa26469706673582212204b37fdd2af15a0c6ca1a5ed6184ca2405077e80f02dfff1e507937b51a6d119064736f6c63430008040033",
  "linkReferences": {},
  "deployedLinkReferences": {}
}